:2000000012006975820612004E75820F12004E90011075F0801200C47582401200869001E6
:200020002E75F0801200C420A50875820212004E80F520A60B30A70875821812004E80E7B6
:2000400030A6E420A7E175821C12004E80D9AF8274F05FF590D292C29253070FEFC454F0E1
:20006000F590D292C2920200EF742355904420F590D292C2921200EFD292C292759080D225
:2000800092C2920200EFAF8274F05F4480F590D292C29253070FEFC454F0F590D292C292F7
:2000A0000200EFAF8274F05F4408F590D292C29253070FEFC454F0FF74084FF590D292C2FD
:2000C000920200EFAD82AE83AFF08D828E838FF01200F4FC60188C82C007C006C005120013
:1400E000A3D005D006D0070DBD00DF0E80DC227F32DFFE2202
:20011000456453696D3531204C4344204D6F64756C652053696D756C6174696F6E00426136
:17013000736564206F6E2048697461636869204844343437383000F2
:1C00F40020F71430F6148883A88220F507E6A88375830022E280F7E49322E0221B
:00000001FF
