:20000000753037753100753200753300753400753500753600753700753800C200120036AE
:2000200012002D1201AB12004EC20080F6758902758C9CD28C221201EB7582061201D075BB
:20004000820F1201D090029275F080020246E53004F53075820212008B743CB5300E7530BD
:2000600000E53104F53175820412008B743CB5310E753100E53204F53275820512008B740F
:2000800018B5320675820602008B22AF8275F00AE530C2D530E704D2D5F40484E5F030D54B
:2000A00002F4042430F533C2D575F00AE53030E704B2D5F4048430D502F4042430F53475A0
:2000C000F00AE531C2D530E704D2D5F40484E5F030D502F4042430F535C2D575F00AE531CD
:2000E00030E704B2D5F4048430D502F4042430F53675F00AE532C2D530E704D2D5F4048409
:20010000E5F030D502F4042430F537C2D575F00AE53230E704B2D5F4048430D502F404242D
:2001200030F538BF0212758206120208853482120225853382020225BF04247582031202AA
:200140000885368212022585358212022575823A120225853482120225853382020225BFAC
:20016000053675820012020885388212022585378212022575823A12022585368212022562
:2001800085358212022575823A120225853482120225853382020225BF060F7582001202CA
:2001A0000890029275F080020246222000051201B480F8227E007F00108D0280FB0EBE0059
:2001C000010FC3EE9410EF648094A740EBD20022AF8274F05FF590D292C29253070FEFC440
:2001E00054F0F590D292C292020271742355904420F590D292C292120271D292C2927590AA
:2002000080D292C292020271AF8274F05F4480F590D292C29253070FEFC454F0F590D292F3
:20022000C292020271AF8274F05F4408F590D292C29253070FEFC454F0FF74084FF590D2F7
:2002400092C292020271AD82AE83AFF08D828E838FF0120276FC60188C82C007C006C00547
:16026000120225D005D006D0070DBD00DF0E80DC227F32DFFE22E8
:0902920030303A30303A303000CF
:1C02760020F71430F6148883A88220F507E6A88375830022E280F7E49322E02297
:00000001FF
