:040000000200CB32FD
:01000B0032C2
:0300130002002ABE
:08001900753000C20002001660
:03001600020030B5
:20002100D2B3C284C285C2862220B302D20032C20112002175A88412062710000280FB7592
:2000410033007532007534007535F7C3E53464809484502F8535821200D18582317402B5A2
:20006100340AE532A2E713A2E713F533E532C40354F8FFE5314FF5320534E535A2E713F531
:200081003580C8E5327004E533603620010DD20185323685333775A00F802610010280214E
:2000A10075A0F085323885333985373D8536821200E185823A85383B85393C853A821201AA
:2000C1006F8530B875800002003B020030222222858280E580C4540FF4FF74075FF5822200
:2000E100AF82E53D602FE53DA2E3E433FE600475823122E53D03035401FE60047582322289
:20010100E53D035401FE600475823322E53D30E05C75823422EF235401FE600475823522C4
:20012100EF23235401FE600475823622EFA2E5E433FE600475823722EFC45401FE60047565
:20014100823822EFA2E3E433FE600475823922EF03035401FE600475822A22EF035401FE4F
:20016100600475823022EF30E00375822322AF82853C3D853B82C0071200E1AE82D007BFA2
:20018100320280030201E2BE310B9006FC75F0801206B08047BE320B9006FE75F080120636
:2001A100B08039BE330B90070075F0801206B0802BBE340B90070275F0801206B0801DBE4C
:2001C100350B90070475F0801206B0800FBE360B90070675F0801206B080012205300206DE
:2001E10012BF33028003020244BE310B90070875F0801206B08047BE320B90070A75F0809F
:200201001206B08039BE330B90070C75F0801206B0802BBE340B90070E75F0801206B08096
:200221001DBE350B90071075F0801206B0800FBE360B90071275F0801206B0800122053092
:20024100020612BF340280030202A6BE310B90071475F0801206B08047BE320B900716752B
:20026100F0801206B08039BE330B90071875F0801206B0802BBE340B90071475F0801206E4
:20028100B0801DBE350B90071675F0801206B0800FBE360B90071875F0801206B08001222B
:2002A1000530020612BF35028003020308BE310B90071A75F0801206B08047BE320B9007B7
:2002C1001C75F0801206B08039BE330B90071E75F0801206B0802BBE340B90072075F080F9
:2002E1001206B0801DBE350B90072275F0801206B0800FBE360B90072475F0801206B080BE
:2003010001220530020612BF3602800302036ABE310B90072675F0801206B08047BE320B5B
:2003210090072875F0801206B08039BE330B90072A75F0801206B0802BBE340B90072C754D
:20034100F0801206B0801DBE350B90072E75F0801206B0800FBE360B90073075F080120605
:20036100B08001220530020612BF370280030203EABE310C90073275F0801206B00203E515
:20038100BE320C90073475F0801206B00203E5BE330B90073675F0801206B08047BE340BC4
:2003A10090073875F0801206B08039BE350B90073A75F0801206B0802BBE360B90073C7599
:2003C100F0801206B0801DBE370B90073E75F0801206B0800FBE380B90074075F080120661
:2003E100B08001220530020612BF3802800302044CBE310B90074275F0801206B08047BE87
:20040100320B90074475F0801206B08039BE330B90074675F0801206B0802BBE340B900798
:200421004875F0801206B0801DBE350B90074A75F0801206B0800FBE360B90074C75F08047
:200441001206B08001220530020612BF390280030204CCBE310C90074E75F0801206B00203
:2004610004C7BE320C90075075F0801206B00204C7BE330B90075275F0801206B08047BE3C
:20048100340B90075475F0801206B08039BE350B90075675F0801206B0802BBE360B9007F2
:2004A1005875F0801206B0801DBE370B90075A75F0801206B0800FBE380B90075C75F08093
:2004C1001206B08001220530020612BF2A028003020556BE320C53300F8530821206720245
:2004E1000612BE3415E53060057440B53001221530853082120672020612BE350E90075E90
:2005010075F0801206B00530020612BE3614AD3053050FBD0F0122053085308212067202AB
:200521000612BE3811740F55304440F530853082120672020612BE390C75304085308212DE
:200541000672020612BE310C75300085308212067202061222BF23028003020611BE310CF0
:2005610090076075F0801206B002060DBE320C90076275F0801206B002060DBE330C900776
:200581006475F0801206B002060DBE340C90076675F0801206B002060DBE350C9007687504
:2005A100F0801206B002060DBE360C90076A75F0801206B002060DBE370B90076C75F08042
:2005C1001206B08047BE380B90076E75F0801206B08039BE390B90077075F0801206B080E9
:2005E1002BBE2A0B90077275F0801206B0801DBE300B90077475F0801206B0800FBE230B5D
:2006010090077675F0801206B080012205308001227410B5300280057450B5300815308539
:2006210030820206722212065575820612063A75820F12063A75300022AF8274F05FF59017
:20064100D292C29253070FEFC454F0F590D292C2920206DB742355904420F590D292C29244
:200661001206DBD292C292759080D292C2920206DBAF8274F05F4480F590D292C29253075F
:200681000FEFC454F0F590D292C2920206DBAF8274F05F4408F590D292C29253070FEFC49A
:2006A10054F0FF74084FF590D292C2920206DBAD82AE83AFF08D828E838FF01206E0FC6019
:1F06C100188C82C007C006C00512068FD005D006D0070DBD00DF0E80DC227F32DFFE2294
:2006FC004100420043006100620063004400450046006400650066004700480049004A00D2
:20071C004B004C006A006B006C004D004E004F006D006E006F0050005100520053007000FB
:20073C007100720073005400550056007400750076005700580059005A007700780079001F
:1C075C007A0020003100320033003400350036003700380039002A00300023008D
:1C06E00020F71430F6148883A88220F507E6A88375830022E280F7E49322E02229
:00000001FF
