:200000007530007E007F00C007C00612062575820612060A75820F12060A758200120644DA
:20002000D006D0077D007C007BF77A00C3EA64809484503A8B82C007C006C005C004C00315
:20004000C0021206B2A982D002D003D004D005D006D007BA0208ECA2E713A2E713FDECC459
:200060000354F8F849FC0AEBA2E713FB80BEEC7003ED60B0EE4F70187E01FF8CA08C318D15
:20008000B08D32C007C0061206ADD006D0078094BE0191BF008E7E007F008CA08DB0853224
:2000A00035853182C007C006C005C0041200C4D004D0058C338D341201521206ADD006D0EE
:2000C00007020024AF82E535602FE535A2E3E433FE600475823122E53503035401FE6004E0
:2000E00075823222E535035401FE600475823322E53530E05C75823422EF235401FE6004F9
:2001000075823522EF23235401FE600475823622EFA2E5E433FE600475823722EFC454010F
:20012000FE600475823822EFA2E3E433FE600475823922EF03035401FE600475822A22EFEF
:20014000035401FE600475823022EF30E00375822322AF82853435853382C0071200C4AEBA
:2001600082D007BF320280030201C5BE310B9006DE75F0801206828047BE320B9006E0754E
:20018000F0801206828039BE330B9006E275F080120682802BBE340B9006E475F08012068A
:2001A00082801DBE350B9006E675F080120682800FBE360B9006E875F080120682800122F9
:2001C00005300205F5BF33028003020227BE310B9006EA75F0801206828047BE320B9006FB
:2001E000EC75F0801206828039BE330B9006EE75F080120682802BBE340B9006F075F080C9
:20020000120682801DBE350B9006F275F080120682800FBE360B9006F475F080120682808B
:20022000012205300205F5BF34028003020289BE310B9006F675F0801206828047BE320B9E
:200240009006F875F0801206828039BE330B9006FA75F080120682802BBE340B9006F67524
:20026000F080120682801DBE350B9006F875F080120682800FBE360B9006FA75F0801206B1
:200280008280012205300205F5BF350280030202EBBE310B9006FC75F0801206828047BE10
:2002A000320B9006FE75F0801206828039BE330B90070075F080120682802BBE340B9007E4
:2002C0000275F080120682801DBE350B90070475F080120682800FBE360B90070675F080D8
:2002E00012068280012205300205F5BF3602800302034DBE310B90070875F080120682802C
:2003000047BE320B90070A75F0801206828039BE330B90070C75F080120682802BBE340BFC
:2003200090070E75F080120682801DBE350B90071075F080120682800FBE360B900712752C
:20034000F08012068280012205300205F5BF370280030203CDBE310C90071475F0801206CF
:20036000820203C8BE320C90071675F0801206820203C8BE330B90071875F080120682808F
:2003800047BE340B90071A75F0801206828039BE350B90071C75F080120682802BBE360B56
:2003A00090071E75F080120682801DBE370B90072075F080120682800FBE380B9007227578
:2003C000F08012068280012205300205F5BF3802800302042FBE310B90072475F0801206DC
:2003E000828047BE320B90072675F0801206828039BE330B90072875F080120682802BBE21
:20040000340B90072A75F080120682801DBE350B90072C75F080120682800FBE360B90075B
:200420002E75F08012068280012205300205F5BF390280030204AFBE310C90073075F08062
:200440001206820204AABE320C90073275F0801206820204AABE330B90073475F08012069A
:20046000828047BE340B90073675F0801206828039BE350B90073875F080120682802BBE7C
:20048000360B90073A75F080120682801DBE370B90073C75F080120682800FBE380B9007B5
:2004A0003E75F08012068280012205300205F5BF2A028003020539BE320C53300F85308238
:2004C0001206440205F5BE3415E53060057440B530012215308530821206440205F5BE35C0
:2004E0000E90074075F08012068205300205F5BE3614AD3053050FBD0F01220530853082C0
:200500001206440205F5BE3811740F55304440F5308530821206440205F5BE390C75304054
:200520007582401206440205F5BE310C7530007582001206440205F522BF230280030205AD
:20054000F4BE310C90074275F0801206820205F0BE320C90074475F0801206820205F0BE52
:20056000330C90074675F0801206820205F0BE340C90074875F0801206820205F0BE350C97
:2005800090074A75F0801206820205F0BE360C90074C75F0801206820205F0BE370B900714
:2005A0004E75F0801206828047BE380B90075075F0801206828039BE390B90075275F080B7
:2005C000120682802BBE2A0B90075475F080120682801DBE300B90075675F08012068280F7
:2005E0000FBE230B90075875F08012068280012205308001227410B5300280057450B5307E
:2006000008153085308202064422AF8274F05FF590D292C29253070FEFC454F0F590D2926E
:20062000C2920206AD742355904420F590C293D292C2921206ADD292C292759080D292C217
:20064000920206ADAF8274F05F4480F590D292C29253070FEFC454F0F590D292C2920206B9
:20066000ADAF8274F05F4408F590D292C29253070FEFC454F0FF74084FF590D292C29202E7
:2006800006ADAD82AE83AFF08D828E838FF01206C2FC60188C82C007C006C005120661D012
:2006A00005D006D0070DBD00DF0E80DC227F32DFFE22858280E580C4540FF4FF74075FF5CE
:0206C000822294
:2006DE004100420043006100620063004400450046006400650066004700480049004A00F0
:2006FE004B004C006A006B006C004D004E004F006D006E006F00500051005200530070001A
:20071E007100720073005400550056007400750076005700580059005A007700780079003D
:1C073E007A0020003100320033003400350036003700380039002A0030002300AB
:1C06C20020F71430F6148883A88220F507E6A88375830022E280F7E49322E02247
:00000001FF
